:020000040800F2
:10000000E823002079100008D9040008DB04000868
:10001000DF040008E3040008E70400080000000013
:10002000000000000000000000000000EB040008D9
:10003000ED04000800000000EF040008F1040008CF
:100040009310000893100008931000089310000804
:100050009310000893100008B50D000893100008D5
:1000600093100008931000089310000893100008E4
:1000700093100008931000089310000893100008D4
:1000800093100008931000089310000893100008C4
:1000900093100008931000089310000893100008B4
:1000A00093100008931000089310000893100008A4
:1000B0006307000893100008F10900089310000876
:1000C0009310000893100008931000089310000884
:1000D0009310000801100008DF070008190A000843
:1000E0009310000893100008931000089310000864
:1000F0009310000893100008931000089310000854
:100100009310000893100008931000089310000843
:10011000810B00089310000893100008931000084A
:100120009310000893100008931000089310000823
:1001300000F002F800F0B4F80AA090E8000C824445
:100140008344AAF10107DA4501D100F0A9F8AFF222
:10015000090EBAE80F0013F0010F18BFFB1A43F0A5
:1001600001031847E44A0000044B000010F8013B6B
:100170000A4413F0030408BF10F8014B1D1108BF17
:1001800010F8015B641E05D010F8016B641E01F8C5
:10019000016BF9D1002D15D010F8014B03F00C03C1
:1001A0000C2BA1EB04040ABF10F8013BA4EB831451
:1001B000A4EB032405F1010314F8016B5B1E01F8A5
:1001C000016BF9D5914238BF10F8013BD1D370478C
:1001D0000023002400250026103A28BF78C1FBD850
:1001E000520728BF30C148BF0B6070476E2903F02B
:1001F000F582702903F05F84662904F0B7846529CD
:1002000004F0B484672904F0B1846129AFF300805D
:1002100003681B0A28BF41F08001692903F0A2820C
:10022000642903F09F82752903F09C826F2903F0F3
:10023000ED83782903F02B84E92903F08783E429EF
:1002400003F08483F52903F08183EF2903F0EA8327
:10025000F82903F02A840368DB0928BF41F08001F4
:10026000632903F0F682732903F0FB82E32903F08C
:100270000487F32903F00987002070471FB503F0B6
:1002800077FF04000020002104F05AFC401C60604D
:100290000020002104F03EFCE0601FBD10B510BD41
:1002A00003F039FF1146FFF7E9FF00F009F804F009
:1002B00011F803B4FFF7F2FF03BC00F02DFE0000BD
:1002C000B2B0012400F0B8FD00F020FE00F082FD85
:1002D0004FF4E13000F02FFE4FF4E13000F0F6FA79
:1002E0004FF4E13000F0E9FB4FF4E13000F0B6FCF0
:1002F00000F0F0F900F003FA0A2000F0DAFDA103A3
:10030000424801F056F86103404801F050F864207B
:1003100000F0CFFD3EA003F071F844A003F06EF8AA
:100320000EE002F00EFE0446012C04D0022C03D095
:10033000032C03D101E002E001E000E000BF00BFB8
:10034000002CEED140A003F059F8012404E0464906
:10035000464802F022FE0446002CF8D14FF47A7091
:1003600000F0A7FD42A003F049F84EE0484800889D
:1003700000F4004070B1474919A803F067F94649F5
:1003800046A003F03BF8444919A803F0A2F9002065
:100390003F4908804748008800F4004070B13D495B
:1003A000684603F053F9444944A003F027F8424952
:1003B000684603F08EF900203E49088045480068F1
:1003C00048F28001084000B3002042490860012142
:1003D000084601F008FA0121880702F08FF819A8F1
:1003E00002F018FE0446684602F014FE002031496F
:1003F000088004B100BF04E01B491C4802F0CDFD99
:100400000446002CF8D100BF00BFAFE7000C01404C
:100410000D0A2A2A2A2AB3CCD0F2B0E6B1BE563150
:100420002E302A2A2A2A2A0D0A0000000D0A2A2A1A
:100430002A2A2A2ACFB5CDB3BFAABBFA2A2A2A2A4A
:100440002A2A2A0D0A0000000D0A2A2A2A2A2A2A04
:1004500053494D383638C9E8B1B8D5FDB3A32A2A77
:100460002A2A2A2A2A0D0A000E0800200008002045
:100470000D0A2A2A2A2A2A2A47505253C1ACBDD330
:10048000B3C9B9A62A2A2A2A2A2A2A0D0A00000054
:100490003C08002013080020D41000200D0AD6D0FC
:1004A000D0C4BDDAB5E3475053CAFDBEDD3A25736B
:1004B0000D0A00003E080020381100200D0A5A697C
:1004C00067626565C4A3BFE9CAFDBEDD3A25730D49
:1004D0000A00000040080020704700BFFEE700BF90
:1004E000FEE700BFFEE700BFFEE7704770477047BA
:1004F000704700000CB50020019000906C48006827
:1005000040F480306A49086000BF6948006800F420
:10051000003000900198401C0190009818B9019893
:10052000B0F5A06FF1D16248006800F4003010B15E
:100530000120009001E0002000900098012843D1A4
:100540005C48006840F010005A490860084600689E
:1005500020F0030008600846006840F002000860D0
:100560005348406852494860084640684860084619
:10057000406840F4806048600846406820F47C1081
:1005800048600846406840F4E81048600846006843
:1005900040F08070086000BF4548006800F00070BF
:1005A0000028F9D04248406820F0030040494860E4
:1005B0000846406840F00200486000BF3C48406880
:1005C00000F00C000828F9D10CBD10B5FFF792FF20
:1005D00010BD10B53648006840F00100344908608D
:1005E0000846406834490840314948600846006878
:1005F000324908402E4908600846006820F48020EF
:1006000008600846406820F4FE0048604FF41F0070
:100610008860FFF7DAFF4FF000602949086010BDDD
:1006200010B5002100200022214B5B6803F00C0173
:1006300021B1042906D0082928D107E0214B224CFA
:10064000236027E01F4B204C236023E0184B5B689E
:1006500003F47010164B5B6803F48032022303EB43
:10066000904022B9194B4343174C23600DE0104BC7
:100670005B6803F4003323B1144B4343124C2360F3
:1006800003E0104B4343104C236003E00D4B0E4C32
:10069000236000BF00BF064B5B68C3F303130C4C21
:1006A000E15C094B1B68CB40074C236010BD000088
:1006B00000100240002002400000FFF8FFFFF6FE9D
:1006C00008ED00E000127A002408002000093D0037
:1006D0002808002008B54FF4E06000F0EDFC1C2075
:1006E0008DF8000000208DF8010003208DF8020035
:1006F00001208DF80300684600F0E3FC08BD0EB54C
:100700000121084601F06FF84FF0804001F0C6FA71
:100710004FF47A70ADF804004720ADF800000020D7
:10072000ADF8020069464FF0804001F08BFB0121DB
:10073000880702F0A9F901221146900701F0F9FE9D
:100740000121880701F0DAFE0121084601F04BF88B
:100750000121084601F047F80121880701F0CEFE8B
:100760000EBD10B50121880702F091F900B30121F7
:10077000880702F09DF90F480088401C0D49088049
:100780000846008841F28831884211DD00214FF08F
:10079000804001F0B3FE0021012001F024F806485A
:1007A000006840F4004004490860002001490880C6
:1007B00010BD0000380800204008002010B5044695
:1007C00044B10021FE4802F02DF90121FC4801F05E
:1007D00095FE03E00021FA4801F090FE10BD10B52F
:1007E00040F22551F74801F015FA08B3F54801F039
:1007F00091F9C4B2F4480088B0F5806F12DA002194
:10080000EF4802F00FF9F048008810B90120FFF717
:10081000D5FFED4801880088401CEB4A1080EB486A
:10082000445405E0E848008840F40040E649088068
:1008300010BD7FB505460C460121042000F0D3FF12
:10084000ADF80450ADF800400020ADF80600ADF85A
:1008500002006946DA4801F0F5FA01221146D8484B
:1008600001F067FE1E208DF80C0001208DF80D00B0
:1008700002208DF80E0001208DF80F0003A800F073
:1008800020FC7FBD70B58CB006460C461546012194
:10089000084600F08EFF304602F00EF901940295F2
:1008A00010200390002004900590802006900020E6
:1008B0000790089009904FF480500A9000200B9008
:1008C00001A9304602F09AF90CB070BD10B586B09F
:1008D00004460121042000F079FF0121480400F0C2
:1008E00082FFB84800F0D6FF0420ADF810000320C6
:1008F0008DF8120018208DF8130004A9B44800F0F8
:10090000A9FC0820ADF8100004208DF8130004A9FC
:10091000AF4800F09FFC00940020ADF80400ADF853
:100920000600ADF80800ADF80C000C20ADF80A0088
:100930006946A44800F0F1FF01228021A14801F09E
:10094000A9F8A44A9F49091DA348FFF79BFF01216D
:100950009C4801F06EF8012240F22551994801F0BF
:1009600074F826208DF8140002208DF8150003205D
:100970008DF8160001208DF8170005A800F0A1FBE6
:1009800041F61F416320FFF754FF00208E49088085
:10099000FFF714FF06B010BD70B504460D460021E8
:1009A000204602F056F92946204602F067F9012157
:1009B000204602F04EF970BD0FB438B505A800907E
:1009C0008448009A049902F007FD0020009000BFBF
:1009D0008148001D00680028FAD17E4802F05AFEC6
:1009E00084B221467C48FFF7D7FF38BC5DF814FB82
:1009F00010B50121724802F04AF860B172480088CF
:100A000040F400407049088001216D4802F050F820
:100A10000020FFF7D3FE10BD10B540F225516F48FE
:100A200001F0F8F8002846D06C4801F073F8C4B221
:100A30006B48008800F4004000283CD168480088DA
:100A4000642832DA67486649098844540078522895
:100A500031D163480088022821DB624840784D2864
:100A600019D160488078432815D15E485C490988CF
:100A7000405C2A2813D15A48008840F40040584965
:100A8000088008460088401C088000205549544AC8
:100A90001288885403E000205149088010BD504856
:100AA0000088401C4E49088005E04D48008840F40D
:100AB00000404B49088000BFF0E710B586B00446FF
:100AC0000121082000F082FE0121880400F08BFE45
:100AD000424800F0DFFE4FF48060ADF810000320C4
:100AE0008DF8120018208DF8130004A93E4800F07C
:100AF000B1FB4FF40060ADF8100004208DF8130036
:100B000004A9394800F0A6FB00940020ADF80400C9
:100B1000ADF80600ADF80800ADF80C000C20ADF8FB
:100B20000A0069462D4800F0F8FE012240F22551E6
:100B30002A4800F08AFF27208DF8140003208DF842
:100B400015008DF8160001208DF8170005A800F09B
:100B5000B8FA0020224908800121204800F069FFEE
:100B600006B010BD10B5044621461C4800F0CEFF6B
:100B700000BF8021194801F037F80028F9D010BDD6
:100B800010B540F22551194801F044F8002863D00F
:100B9000164800F0BFFFC4B21548008800F40040BA
:100BA000002859D11248008864284FDA11481049AA
:100BB0000988445400785A284ED10D4800881BE01B
:100BC00000080040004400403A080020D40C0020F7
:100BD00000080140700800208000024000480040EA
:100BE0003C080020D4100020000C0140004C0040C4
:100BF0003E08002038110020022821DB4C484078B4
:100C0000492819D14A488078472815D14848494988
:100C10000988405C642813D14648008840F40040AD
:100C20004449088008460088401C0880002040494C
:100C3000404A1288885403E000203E49088010BDD5
:100C40003C480088401C3B49088005E03948008842
:100C500040F400403749088000BFF0E710B586B087
:100C600004460121102000F0B1FD0121C80400F06C
:100C7000BAFD314800F00EFE4FF48060ADF8100070
:100C800003208DF8120018208DF8130004A92B48BA
:100C900000F0E0FA4FF40060ADF8100004208DF889
:100CA000130004A9254800F0D5FA00940020ADF8FF
:100CB0000400ADF80600ADF80800ADF80C000C20FB
:100CC000ADF80A0069461C4800F027FE012240F2F8
:100CD0002551194800F0B9FE34208DF81400032086
:100CE0008DF815008DF8160001208DF8170005A865
:100CF00000F0E7F9002012490880012240F2255156
:100D00000D4800F0A2FE01210B4800F092FE06B053
:100D100010BD10B504462146074800F0F7FE00BF9D
:100D20008021054800F060FF0028F9D010BD0000C8
:100D3000381100203E080020004C00400010014007
:100D40003C0800201FB50120ADF8000002208DF8FE
:100D5000020048208DF8030069461C4800F07AFA2A
:100D60000121102000F032FD0121084600F02EFD87
:100D70000021084600F084FB0120029000208DF83D
:100D80000C0001208DF80E000C208DF80D0002A83B
:100D900001F0CAFF06208DF8040002208DF805003E
:100DA00003208DF8060001208DF8070001A800F04F
:100DB00088F91FBD10B5012002F01CF828B1802071
:100DC00003490860012002F026F810BD0008014028
:100DD0004008002008B50121082000F0F7FC4FF47E
:100DE0000050ADF8000010208DF8030003208DF8AE
:100DF000020069460F4800F02DFA0121082000F09A
:100E0000E5FC4FF44040ADF8000014208DF80300DD
:100E100003208DF802006946064800F01BFA4FF4E3
:100E20008041044800F0C3FA4FF40051014800F03B
:100E3000C0FA08BD000C014010B56FF0040000F0CE
:100E40008AF92E4800682E49B0FBF1F02D49087050
:100E50000846007800EB4001C1EBC0104FF6FF716F
:100E600001EAC0002849088010BD0146254A1278D1
:100E70004A434FF0E0235A6100229A611A461269F0
:100E800042F001021A6100BF4FF0E022106900F049
:100E900001021AB100F48032002AF5D04FF0E022AE
:100EA000126922F001024FF0E0231A6100229A61D8
:100EB00070470146144A12884A434FF0E0235A61B2
:100EC00000229A611A46126942F001021A6100BFBB
:100ED0004FF0E022106900F001021AB100F48032F4
:100EE000002AF5D04FF0E022126922F001024FF003
:100EF000E0231A6100229A61704700002408002054
:100F000000127A00440800204608002010B54FF473
:100F1000A06000F0D1F810BD014600BF704700BFCF
:100F2000514A128802F04002002AF9D0C2B24E4B58
:100F30001B1D1A80704710B586B00446012144F28B
:100F4000050000F043FC4FF40070ADF814000320DE
:100F50008DF8160018208DF8170005A9434800F0F9
:100F600079F94FF48060ADF8140004208DF8170073
:100F700005A93E4800F06EF925208DF800000320F9
:100F80008DF801008DF8020001208DF803006846FD
:100F900000F097F801940020ADF80800ADF80A00C1
:100FA000ADF80C00ADF810000C20ADF80E0001A952
:100FB0002D4800F0B2FC012240F225512A4800F0F1
:100FC00044FD0121284800F034FD0121084600F0CD
:100FD0000AFC0121880701F091FA002024490880C9
:100FE00006B010BD10B5044621461F4800F08EFD26
:100FF00000BF80211C4800F0F7FD0028F9D010BD8B
:1010000010B540F22551184800F004FE20B31648F0
:1010100000F080FDC4B21648008800F40040D8B942
:1010200013480088642818DA00214FF0804001F04E
:10103000F9FC0F48008818B90121084600F0D3FBDD
:101040000121880701F05AFA094801880088401CEC
:10105000074A10800748445405E00548008840F4DA
:1010600000400349088010BD0038014000080140DD
:101070004C0800209C11002009488047094800477F
:10108000FEE7FEE7FEE7FEE7FEE7FEE7FEE7FEE738
:10109000FEE7FEE704480549054A064B7047000095
:1010A000D305000831010008E81D0020E8230020D6
:1010B000E81F0020E81F002031490143314A116038
:1010C000704770B5002100230F22C47804B32D4C63
:1010D000246804F4E064C4F5E064210AC1F1040367
:1010E000CA40447804FA03F184781440214309018A
:1010F000254C0678A155047804F01F050124AC4066
:1011000005786D11AD0005F1E025C5F8004109E055
:10111000047804F01F050124AC401C4D06787611BC
:1011200045F8264070BD1A4A0A400243154B1B1F62
:101130001A60704739B1134A121D12680243114BED
:101140001B1D1A6006E00F4A121D126882430D4BE8
:101150001B1D1A607047042808D14FF0E02109696F
:1011600041F004014FF0E022116107E04FF0E0216F
:10117000096921F004014FF0E0221161704700007D
:101180000000FA050CED00E000E400E080E100E082
:1011900080FFFF1F10B50446CC48844208D10121CE
:1011A000042000F02DFB0021042000F029FB46E084
:1011B000C748844208D10121082000F021FB00210A
:1011C000082000F01DFB3AE0C248844208D101210A
:1011D000102000F015FB0021102000F011FB2EE084
:1011E000BD48844208D10121202000F009FB0021E4
:1011F000202000F005FB22E0B848844208D10121FC
:10120000402000F0FDFA0021402000F0F9FA16E03D
:10121000B348844208D10121802000F0F1FA002176
:10122000802000F0EDFA0AE0AE48844207D10121A7
:10123000801500F0E5FA0021A01500F0E1FA10BDDC
:1012400010B50121084600F0DBFA0021012000F072
:10125000D7FA10BD2DE9F0410246002500260020F6
:1012600000230024002791F803C00CF00F0591F82B
:1012700003C00CF0100CBCF1000F03D091F802C0B9
:101280004CEA050591F800C0BCF1000F31D014689C
:1012900000202BE04FF0010C0CFA00F3B1F800C075
:1012A0000CEA03069E4220D183004FF00F0C0CFA8B
:1012B00003F7BC4305FA03FC4CEA040491F803C0AD
:1012C000BCF1280F06D14FF0010C0CFA00FCC2F85B
:1012D00014C00AE091F803C0BCF1480F05D14FF0EB
:1012E000010C0CFA00FCC2F810C0401C0828D1D335
:1012F0001460B1F800C0BCF1FF0F34DD5468002069
:101300002EE000F1080C4FF0010808FA0CF3B1F8D8
:1013100000C00CEA03069E4221D183004FF00F0C5F
:101320000CFA03F7BC4305FA03FC4CEA040491F8F9
:1013300003C0BCF1280F05D100F1080C08FA0CF825
:10134000C2F8148091F803C0BCF1480F07D100F136
:10135000080C4FF0010808FA0CF8C2F81080401C85
:101360000828CED35460BDE8F0814FF6FF710180AC
:10137000022181700421C1707047024600209368E9
:101380000B400BB1012000E0002070470146886847
:1013900080B2704702460020D3680B400BB1012099
:1013A00000E0002070470146C86880B270470161C4
:1013B0007047416170470AB1016100E041617047C7
:1013C000C16070474FF480320A438261816182615B
:1013D00082698269704702460020434B18684FF6C5
:1013E0008073184040EA021008433F4B1860704772
:1013F0003E49C8617047F0B50A4600230024002129
:10140000002500F00046B6F1004F02D1364EF169DA
:1014100001E0354E7168C0F3034583B200F4401615
:10142000B6F5401F08D121F070612F4E766826F086
:1014300070662D4F7E6012E000F48016B6F5801FB6
:1014400006D1032606FA05F4A14341F0706106E0D7
:10145000460D360103FA06F6B14341F0706122B140
:10146000460D360103FA06F6314300F00046B6F1A8
:10147000004F02D11C4EF16101E01B4E7160F0BDC6
:1014800030B500228B071C0F0F2303FA04F2164B12
:1014900008338C1053F824309343134C08348D10C8
:1014A00044F8253023468C1053F824308C07240F41
:1014B00000FA04F423430C4C08348D1044F8253012
:1014C00030BD0A49DC310860704700000008014067
:1014D000000C0140001001400014014000180140C0
:1014E000001C01400020014000000140000020429B
:1014F000DF48006840F00100DD49086008464068A8
:10150000DC490840DA49486008460068DA49084082
:10151000D74908600846006820F480200860084623
:10152000406820F4FE0048604FF41F008860704758
:10153000CF49096821F48031CD4A1160114609680C
:1015400021F480211160B0F5803F03D0B0F5802FE9
:101550000ED106E0C649096841F48031C44A1160E1
:1015600007E0C349096841F4A021C14A116000E0C5
:1015700000BF00BF704710B50146002200230020C5
:101580004A11012A02D1BA4C236806E0022A02D18C
:10159000B74C236A01E0B64C636A01F01F020124D4
:1015A00094401C400CB1012000E0002010BD38B573
:1015B000002000900024002500BF3120FFF7DBFF52
:1015C00005460098401C00900098B0F5A06F01D02F
:1015D000002DF2D03120FFF7CEFF08B1012400E04A
:1015E0000024204638BD01460020A14A106820F0A2
:1015F000F80040EAC10010607047A04908607047D9
:10160000024600209A4B586820F47C1042EA0103FD
:101610001843974B586070479849086670470146D1
:101620000020934A506820F0030008435060704740
:101630008F48406800F00C007047014600208C4A3B
:10164000506820F0F00008435060704701460020C9
:10165000874A506820F4E0600843506070470146B4
:101660000020834A506820F4605040EAC100506076
:10167000704729B17E4A527A02437D4B5A7204E088
:101680007B4A527A82437A4B5A7270477B49D831EF
:101690000860704701460020754A506820F44040B9
:1016A0000843506070470021714A20321170704A1F
:1016B00082F82010012802D004280AD104E0012178
:1016C0006B4A2032117005E00521694A2032117001
:1016D00000E000BF00BF7047694908607047644977
:1016E000096A0143624A11627047654944390860DA
:1016F000704730B500210022002400235C4D6D6846
:1017000005F00C0121B1042905D0082923D105E0F9
:101710005C4D056022E05B4D05601FE0544D6D6837
:1017200005F47012524D6D6805F48034022505EB06
:1017300092421CB9544D554305600BE04C4D6D6809
:1017400005F400351DB1504D5543056002E04D4D87
:101750005543056002E04B4D056000BF00BF444D9E
:101760006D6805F0F0010909484D6B5C0568DD40C6
:1017700045603F4D6D6805F4E061090A434D6B5CBF
:101780004568DD4085603A4D6D6805F46051C90AD1
:101790003E4D6B5C4568DD40C560354D6D6805F4B8
:1017A0004041890B3A4D6B5CC568B5FBF3F50561AB
:1017B00030BD29B12E4A526902432D4B5A6104E0D3
:1017C0002B4A526982432A4B5A61704729B1284AF1
:1017D00092690243264B9A6104E0254A926982434A
:1017E000234B9A61704729B1214AD2690243204BA9
:1017F000DA6104E01E4AD26982431D4BDA61704708
:1018000029B11B4AD2680243194BDA6004E0184A36
:10181000D2688243164BDA60704729B1144A1269C4
:101820000243134B1A6104E0114A12698243104BC0
:101830001A61704712494039086070470F49C864FF
:1018400070470B49C87170470948406A40F0807082
:1018500007494862704701460020054A92680A40DD
:101860000AB1012000E000207047014988727047EA
:10187000001002400000FFF8FFFFF6FE00004242A9
:101880008004424200127A0000093D004E08002008
:101890005E08002010B50446FB48844209D10121AE
:1018A0008803FFF7ADFF00214FF48040FFF7A8FF4A
:1018B00032E0F648844209D101214804FFF7ADFF28
:1018C00000214FF40030FFF7A8FF25E0F0488442E4
:1018D00009D101218804FFF7A0FF00214FF48020E7
:1018E000FFF79BFF18E0EB48844209D10121C804AF
:1018F000FFF793FF00214FF40020FFF78EFF0BE06E
:10190000E548844208D101210805FFF786FF002140
:101910004FF48010FFF781FF10BD2DE9F04786B02E
:1019200005460E460024A24600BFA1460027B08906
:1019300000B100BF2F462C8A4CF6FF700440F0889F
:1019400004432C82AC894EF6F3100440B0883189F0
:101950000843718908430443AC81AC8A4FF6FF40C9
:101960000440B0890443AC8201A8FFF7C2FEC64818
:10197000874202D1DDF810A001E0DDF80CA0A889B3
:1019800000F4004040B10AEBCA0000EB0A103168D5
:101990004900B0FBF1F807E00AEBCA0000EB0A10BF
:1019A00031688900B0FBF1F86420B8FBF0F0040165
:1019B0002009642101FB1089A88900F4004040B18E
:1019C000322000EBC900B0FBF1F000F00700044347
:1019D00008E0322000EB09106421B0FBF1F000F0C8
:1019E0000F0004432C8106B0BDE8F0874FF4165178
:1019F000016000218180C18001810C214181002191
:101A00008181704710B502460020108A4FF2FF0313
:101A100018400B884C8823438C882343CC8823436D
:101A20001843108210BD0021018041808180C18057
:101A3000704721B1828942F40052828104E0828998
:101A40004DF6FF731A4082817047F0B503460024BB
:101A500000260025002040F66A17B94200D100BFD9
:101A60001846C1F3421401F01F06012707FA06F5D4
:101A7000012C01D10C3004E0022C01D1103000E027
:101A800014301AB107682F43076002E00768AF43BC
:101A90000760F0BD1AB1838A0B43838202E0838A18
:101AA0008B4383827047028A4FF6F0731A4002829A
:101AB000028A0A430282704782894FF2FF731A40FA
:101AC000828182890A438281704721B1828942F0F2
:101AD0000202828104E082894FF6FD731A408281FE
:101AE0007047028A4FF6DF731A400282028A0A4365
:101AF0000282704721B1028A42F48042028204E0ED
:101B0000028A4BF6FF731A4002827047C1F3080243
:101B10008280704701468888C0F308007047818939
:101B200041F0010181817047028BD2B20283028BA6
:101B300042EA012202837047028B02F47F42028351
:101B4000028B0A430283704721B1828A42F020024D
:101B5000828204E0828A4FF6DF731A4082827047E5
:101B600021B1828A42F01002828204E0828A4FF61A
:101B7000EF731A408282704721B1828A42F00802D4
:101B8000828204E0828A4FF6F7731A40828270479D
:101B900021B1828942F40042828103E08289C2F34A
:101BA0000E028281704721B1828A42F400628282F1
:101BB00004E0828A4FF2FF731A4082827047828A61
:101BC0004FF6FB731A408282828A0A4382827047F0
:101BD00021B1828A42F00202828204E0828A4FF6B8
:101BE000FD731A408282704702460020B1F5007FE3
:101BF00000D100BF13880B400BB1012000E0002092
:101C0000704701F40072B2F5007F00D100BFCA43F3
:101C10000280704770B50246002400230025002092
:101C200040F66A16B14200D100BFC1F3421501F07F
:101C30001F03012606FA03F3012D02D196893340D2
:101C400006E0022D02D1168A334001E0968A334025
:101C50000C12012606FA04F41688344013B10CB1B4
:101C6000012000E0002070BD10B50022002340F6E6
:101C70006A14A14200D100BF0A1201249440A3B209
:101C8000DC43048010BD00000038014000440040E7
:101C900000480040004C00400050004010B5044691
:101CA000FE48844208D10121C014FFF7A9FD00219C
:101CB000E014FFF7A5FDC4E0B4F1804F08D1012185
:101CC0000846FFF7AAFD00210120FFF7A6FDB8E0B6
:101CD000F348844208D101210220FFF79EFD002134
:101CE0000220FFF79AFDACE0EE48844208D10121C2
:101CF0000420FFF792FD00210420FFF78EFDA0E0F5
:101D0000E948844208D101210820FFF786FD00211F
:101D10000820FFF782FD94E0E448844208D10121C5
:101D20001020FFF77AFD00211020FFF776FD88E0F4
:101D3000DF48844208D101212020FFF76EFD0021F9
:101D40002020FFF76AFD7CE0DA48844208D10121B7
:101D50004014FFF755FD00216014FFF751FD70E0BE
:101D6000D548844209D10121C804FFF749FD00216B
:101D70004FF40020FFF744FD63E0D048844209D1CE
:101D800001210805FFF73CFD00214FF48010FFF70B
:101D900037FD56E0CA48844209D101214805FFF7C2
:101DA0002FFD00214FF40010FFF72AFD49E0C54840
:101DB000844208D101214020FFF72FFD002140205F
:101DC000FFF72BFD3DE0C048844208D1012180206F
:101DD000FFF723FD00218020FFF71FFD31E0BB4806
:101DE000844208D101218015FFF717FD0021A015BD
:101DF000FFF713FD25E0B648844209D1012108040C
:101E0000FFF7FEFC00214FF48030FFF7F9FC18E0EB
:101E1000B048844209D101214804FFF7F1FC0021B8
:101E20004FF40030FFF7ECFC0BE0AB48844208D1E4
:101E300001218804FFF7E4FC00214FF48020FFF724
:101E4000DFFC10BD00220288944B98420ED0994BC3
:101E500098420BD0B0F1804F08D0914B984205D0FA
:101E6000904B984202D0904B984204D14FF68F731A
:101E70001A404B881A438D4B984207D08C4B98429E
:101E800004D04FF6FF431A40CB881A4302808B8858
:101E900083850B880385814B98420BD0854B9842F4
:101EA00008D08B4B984205D08A4B984202D08A4B7F
:101EB000984201D10B7A038601238382704770B563
:101EC000002400220023058C4FF6FE763540058461
:101ED000028C8388048B4FF68F752C40B51E2C40E6
:101EE0000D882C43751E2A400D892A434D882A43AC
:101EF0006A4DA8420BD06F4DA84208D0744DA8423D
:101F000005D0744DA84202D0734DA84213D14FF6AC
:101F1000F7752A404D892A434FF6FB752A408D8874
:101F20002A434FF6FF652B404FF6FF552B408D8916
:101F30002B43CD892B4383800483CD8885860284FF
:101F400070BD70B5002400220023058C4FF6EF769B
:101F500035400584028C8388048B48F6FF752C403D
:101F60004FF6FF452C400D884FF6FF7606EA052513
:101F70002C434FF6DF752A400D8906EA05152A43E2
:101F80004D8806EA05152A43444DA84202D0494D22
:101F9000A8421DD14FF67F752A404D894FF6FF7636
:101FA00006EA05152A434FF6BF752A408D8806EAD2
:101FB00005152A434FF6FF352B404FF2FF752B4096
:101FC0008D8906EA85052B43CD8906EA85052B43D5
:101FD00083800483CD880587028470BD70B500249A
:101FE00000220023058C4FF6FF6635400584028CE5
:101FF0008388848B4FF68F752C404FF6FC752C40F0
:102000000D882C434FF6FF552A400D894FF6FF7679
:1020100006EA05252A434D8806EA05252A431F4D71
:10202000A84202D0234DA8421DD14FF2FF752A408D
:102030004D894FF6FF7606EA05252A434FF6FF3510
:102040002A408D8806EA05252A434EF6FF752B4067
:102050004DF6FF752B408D8906EA05152B43CD897A
:1020600006EA05152B4383808483CD888587028407
:1020700070BD70B5002200230024058C4EF6FF765B
:1020800035400584038C8488828B48F6FF752A408E
:102090004FF6FF452A400D8820E00000002C01404B
:1020A0000004004000080040000C00400010004008
:1020B0000014004000340140004C01400050014039
:1020C0000054014000180040001C00400020004067
:1020D0000040014000440140004801404FF6FF76B7
:1020E00006EA05252A434DF6FF752B400D8906EAC1
:1020F00005352B434D8806EA05352B43FA4DA8429A
:1021000002D0FA4DA84208D14BF6FF752C408D89BC
:102110004FF6FF7606EA85152C4384808283CD88AE
:10212000A0F84050038470BD828B4FF2FF331A40F9
:102130008283828B4FF6FF7303EA01231A43828363
:102140007047F0B50C461546002200210026078C8A
:102150004EF6FF7C07EA0C070784828B018C4FF652
:10216000FF7707EA043640F6FF473A404FF6FF771D
:1021700007EA05273A434FF6FF7707EA03373A4362
:10218000D94FB8420ED0D94FB8420BD0B0F1804FE2
:1021900008D0D74FB84205D0D64FB84202D0D64F5C
:1021A000B84206D14DF6FF77394046F4805739439F
:1021B00005E047F6FF57394044F48057394382839E
:1021C0000184F0BD828B4FF6F3731A408283828BB9
:1021D0000A4382837047F0B50C4615460022002161
:1021E0000026078C4FF6FF6C07EA0C070784828BEA
:1021F000018C4FF6FF7707EA04264FF60C773A403A
:102200004FF6FF7707EA03172F433A43B64FB8421A
:102210000ED0B64FB8420BD0B0F1804F08D0B44FBB
:10222000B84205D0B34FB84202D0B34FB84206D13E
:102230004FF6FF57394046F48077394305E04FF2B7
:10224000FF57394044F48077394382830184F0BDDD
:10225000028B4FF2FF331A400283028B4FF6FF735B
:1022600003EA01231A4302837047F0B50C46154672
:10227000002200210026078C4FF6EF7C07EA0C07AE
:102280000784028B018C4FF6FF7707EA041640F6AD
:10229000FF473A404FF6FF7707EA03373A434FF6D6
:1022A000FF7707EA05273A438F4FB8420ED08F4F8A
:1022B000B8420BD0B0F1804F08D08D4FB84205D056
:1022C0008C4FB84202D08C4FB84206D14FF6DF7720
:1022D000394046F01007394305E04FF65F77394043
:1022E00044F01007394302830184F0BD028B4FF69E
:1022F000F3731A400283028B0A4302837047F0B5DE
:102300000C46154600220021068C4FF6FE773E4013
:102310000684028B018C4FF60C7632407E1C06EA56
:1023200003162E433243704EB0420ED06F4EB04271
:102330000BD0B0F1804F08D06D4EB04205D06D4E3D
:10234000B04202D06C4EB04206D14FF6FD7631401D
:1023500044F00106314305E04FF6F576314044F094
:102360000106314302830184F0BD70B505460C4679
:102370005D4885420ED05D4885420BD0B5F1804F57
:1023800008D05B48854205D05A48854202D05A4859
:10239000854200D100E000BF208850B92389A2887F
:1023A00061882846FFF7ABFFE1882846FFF79EFFCC
:1023B00025E0208804280AD12389A288618828463C
:1023C000FFF753FFE1882846FFF742FF17E0208818
:1023D00008280AD12389A28861882846FFF7FBFED6
:1023E000E1882846FFF7EEFE09E02389A28861888C
:1023F0002846FFF7A6FEE1882846FFF795FE70BD48
:102400002DE9F04105460C4600260127608808B9F1
:10241000022600E00026A088012801D1022700E062
:1024200001272088A0B92389A28861882846FFF760
:1024300066FFE1882846FFF759FF23893A4631466F
:102440002846FFF712FFE1882846FFF701FF13E057
:102450002389A28861882846FFF707FFE18828467C
:10246000FFF7F6FE23893A4631462846FFF747FF35
:10247000E1882846FFF73AFFBDE8F0810A884B88DB
:102480001A438B881A43CB881A430B891A434B890A
:102490001A438B891A43A0F8442070474FF6FF7106
:1024A000818000210180C18041800172704700213C
:1024B000018041808180C180018141818181C18110
:1024C0007047002101804180012181800021C1806D
:1024D000018170470021018041808180C18001819C
:1024E0004181818170470000002C0140003401408F
:1024F0000004004000080040000C004021B10288A8
:1025000042F00102028004E002884FF6FE731A4096
:102510000280704731B1B0F8442042F40042A0F884
:10252000442005E0B0F84420C2F30E02A0F8442095
:1025300070471AB183890B43838102E083898B43FF
:10254000838170478182704741EA0203A0F84830D6
:1025500070471AB183890B43838102E083898B43DF
:102560008381704701894FF6F872114001817047ED
:102570000A46002101894FF68F73194011430181EA
:10258000704730B504460D4629462046FFF7F0FF58
:10259000208940F00700208130BD2DE9F04104463C
:1025A0000D4616461F46602D06D13B460122314698
:1025B0002046FFF75AFE05E03B4601223146204601
:1025C000FFF79DFE29462046FFF7D2FF208940F005
:1025D00007002081BDE8F08130B50C46002101895B
:1025E000C9B24FF6FF7505EA032515432543294374
:1025F000018130BD2DE9F04105460E46174698464B
:10260000002443463A4631462846FFF7E5FF2C8929
:102610004FF6F870044044F007044FF68F70044002
:1026200044F070042C81BDE8F081F0B504460D46FD
:1026300016461F463B46324629462046FFF7CCFF4A
:10264000208940F480402081F0BD0185828270475E
:102650000A46002101884FF68F731940114301800B
:102660007047F0B50C4615461E4600210022002397
:102670000189028B038C4FF6F877394021434FF6DE
:10268000FC473A4040F201173A434FF6DD773B40B2
:102690004FF6FF7707EA06172F433B43018102837A
:1026A0000384F0BD0A460021018B4FF68F73194059
:1026B0001143018370470A460021018B48F6FF73DE
:1026C00019404FF6FF7303EA022319430183704751
:1026D0000A460021818B4FF68F7319401143818385
:1026E00070470A460021818B48F6FF7319404FF668
:1026F000FF7303EA022319438183704721B10288E3
:1027000042F08002028004E002884FF67F731A4094
:102710000280704721B1828842F00402828004E086
:1027200082884FF6FB731A408280704721B18288FD
:1027300042F00802828004E082884FF6F7731A4064
:102740008280704721B1828842F00102828004E0D9
:1027500082884FF6FE731A40828070470A46002135
:10276000018B4FF6F77319401143018370470A46F6
:102770000021018B4FF2FF7319404FF6FF7303EAFC
:1027800002231943018370470A460021818B4FF6CB
:10279000F77319401143818370470A460021818BEA
:1027A0004FF2FF7319404FF6FF7303EA02231943F8
:1027B000818370470A460021018B4FF6FB73194055
:1027C0001143018370470A460021018B4FF6FF3306
:1027D00019404FF6FF7303EA022319430183704740
:1027E0000A460021818B4FF6FB7319401143818308
:1027F00070470A460021818B4FF6FF3319404FF690
:10280000FF7303EA02231943818370470A460021BC
:10281000018B4FF67F7319401143018370470A46BD
:102820000021018BC1F30E014FF6FF7303EA02236F
:102830001943018370470A460021818B4FF67F734D
:1028400019401143818370470A460021818BC1F3EF
:102850000E014FF6FF7303EA022319438183704789
:102860000A460021018C4FF6FD7319401143018483
:1028700070470A460021018C4FF6F7731940114347
:10288000018470470A460021018C4FF6DF7319401E
:102890004FF6FF7303EA02131943018470470A4697
:1028A0000021018C4FF67F7319404FF6FF7303EA46
:1028B00002131943018470470A460021018C4FF628
:1028C000FF5319404FF6FF7303EA022319430184B3
:1028D00070470A460021018C4FF2FF7319404FF6F2
:1028E000FF7303EA02231943018470470A4600215B
:1028F000018C4DF6FF7319404FF6FF7303EA023364
:1029000019430184704730B5002301248C40A3B2E1
:10291000048C9C430484048C02FA01F5ADB22C4370
:10292000048430BD30B5002304248C40A3B2048C51
:102930009C430484048C02FA01F5ADB22C43048458
:1029400030BD70B50346002000241846183001251C
:102950008D40ACB21D8CA5431D8409B1082909D155
:1029600000EB6100056825F07005056005681543FA
:1029700005600EE00D1FC5F34E052844056825F4DB
:10298000E045056005684FF6FF7606EA0226354306
:10299000056070BD21B1028842F00202028004E0AD
:1029A00002884FF6FD731A400280704721B10288F9
:1029B00042F00402028004E002884FF6FB731A40E2
:1029C0000280704721B1828842F08002828004E058
:1029D00082884FF67F731A408280704702884FF6D4
:1029E000F7731A40028002880A4302807047828887
:1029F0004FF68F731A40828082880A438280704724
:102A000002894FF6F8731A40028102890A43028153
:102A1000704702894FF67F731A40028102890A4388
:102A20000281704781847047818570478186704735
:102A30000187704781877047A0F84010704702886F
:102A40004FF6FF431A40028002880A430280704713
:102A50000146888E70470146088F70470146888F6F
:102A600070470146B1F8400070470146888C7047B6
:102A70000146088D704702460020138A0B400BB1B7
:102A8000012000E000207047CA430282704730B541
:102A90000246002000230024158A05EA01039589D7
:102AA00005EA010413B10CB1012000E0002030BDA3
:102AB000CA4302827047000001684FF6FE7211405F
:102AC00001600021016041608160C1608D498842E0
:102AD00008D18C490839496841F00F01894A083A00
:102AE00051608AE087491431884208D18549083904
:102AF000496841F0F001834A083A51607DE081491C
:102B00002831884208D17F490839496841F4706109
:102B10007C4A083A516070E07A493C31884208D1D9
:102B200078490839496841F47041764A083A516059
:102B300063E074495031884208D1724908394968C4
:102B400041F470216F4A083A516056E06D49643192
:102B5000884208D16B490839496841F47001694AD3
:102B6000083A516049E067497831884208D165499F
:102B70000839496841F07061624A083A51603CE0A6
:102B80006149884206D1011F096841F00F01021F07
:102B9000116032E05C491431884208D15A49091F5A
:102BA000096841F0F001584A121F116025E05649AA
:102BB0002831884208D15449091F096841F47061DD
:102BC000514A121F116018E04F493C31884208D128
:102BD0004D49091F096841F470414B4A121F1160A9
:102BE0000BE049495031884207D14749091F09681C
:102BF00041F47021444A121F1160704710B5002241
:102C0000026847F6F0739A430C6A8B6823430C6999
:102C100023434C6923438C692343CC6923434C6A87
:102C200023438C6A23431A430260CB6843600B68DA
:102C300083604B68C36010BD00210160416081600A
:102C4000C160016141618161C16101624162816272
:102C5000704721B1026842F00102026004E002689C
:102C60004FF6FE731A40026070471AB103680B43B7
:102C7000036002E003688B43036070474160704764
:102C80000146486880B2704701460020002201F0EA
:102C900080531BB11C4B083B1A6802E0194B083BE0
:102CA0001A6802EA01030BB1012000E0002070471E
:102CB00000F0805119B11449091F086002E0114960
:102CC00008394860704701460020002201F0805317
:102CD0001BB10D4B083B1A6802E00A4B083B1A680F
:102CE00002EA01030BB1012000E00020704700F070
:102CF000805119B10449091F086002E001490839EF
:102D0000486070470800024008040240002044491F
:102D10000860091D0860091D0860091D0860414818
:102D20003F4914310860704700213D498279002AEB
:102D30003AD00A46126803689A430B461A600A1D85
:102D4000126803689A430B1D1A60027911440A68DD
:102D500003681A430A60324A0832126803689A43C9
:102D60002F4B08331A601A1D126803689A432C4BC4
:102D70000C331A604279102A0ED11A1F12680368A8
:102D80001A43274B08331A601A1D126803681A4346
:102D9000234B0C331A600DE02149427911440A6833
:102DA00003681A430A6005E0027911440A6803685F
:102DB0009A430A6070470021016001710C21417142
:102DC0000021817170471649103109680143144A86
:102DD00010321160704701460020114A1432126807
:102DE0000A400AB1012000E0002070470C4914316C
:102DF00008607047014600200022094B1B6803EA67
:102E00000102074B14331B680B4013B10AB10120B8
:102E100000E000207047024914310860704700004C
:102E200000040140FFFF0F0010B50446F74800887A
:102E300000F4004070B10020F4490988C1F30E018C
:102E4000F34A50541146F3A000F0D8FA14B1002010
:102E5000EE49088010BD70B504460025EB48008897
:102E600000F4004058B10020E8490988C1F30E0180
:102E7000E74A50542146104600F0D6FB0546284646
:102E800070BD2DE9F04104460E461546002700208E
:102E9000DE490880FF2C07D800BFDF480068002803
:102EA000FBD1DE490C8003E02146DDA0FDF784FD67
:102EB000C6B1BDB10FE00A20FDF7FBFFD348008883
:102EC00000F4004038B13046FFF7C5FF00B106E01E
:102ED0000020CE490880681E80B20500EBD100BFFB
:102EE00005B901273846BDE8F0810146302905DBE8
:102EF000392903DCA1F13000C0B27047412905DB5C
:102F0000462903DCA1F13700C0B2F6E7612905DBF1
:102F1000662903DCA1F15700C0B2EEE70020ECE720
:102F20000146092903DC01F13000C0B270470A29CB
:102F300005DB0F2903DC01F13700C0B2F6E73020D2
:102F4000F4E710B56422B8A1B8A0FFF79AFF38B132
:102F50006422B5A1B5A0FFF794FF08B1012010BD10
:102F6000C822B3A1B4A0FFF78CFF08B10220F6E796
:102F7000C822B4A1B4A0FFF784FF60B16422AAA163
:102F8000B4A0FFF77EFF20B9B448A149B1F80F10F3
:102F900001800320E3E70020E1E770B504460D4619
:102FA0006422AFA1AFA0FFF76CFF08B1012070BD94
:102FB0004FF4FA729CA1AEA0FFF763FF08B10220A4
:102FC000F5E7C82298A1ADA0FFF75BFF08B1032089
:102FD000EDE74FF4167294A1AAA0FFF752FF08B1D3
:102FE0000420E4E7C822AAA1ABA0FFF74AFF08B972
:102FF0000520DCE72B462246AAA1B14800F00AFAD8
:10300000C822B0A1AE48FFF73CFF08B10620CEE7CA
:103010000020CCE710B504466422ADA1ADA0FFF7B7
:1030200030FF08B1012010BD00227EA12046FFF72D
:1030300028FF08B10220F6E740F2DC52A8A11A20CE
:10304000FFF71FFF08B10320EDE70020EBE710B505
:103050000446BCB1642274A1A3A0FFF712FF08B11B
:10306000012010BD642270A1A2A0FFF70AFF08B1E1
:103070000220F6E764226CA1A2A0FFF702FFC8B10C
:103080000320EEE7642268A197A0FFF7FAFE08B1DB
:103090000120E6E7642264A19FA0FFF7F2FE08B1D9
:1030A0000220DEE7642260A19FA0FFF7EAFE08B1DC
:1030B0000320D6E7C8225CA1A1A0FFF7E2FE08B179
:1030C0000420CEE70020CCE730B587B004460D469B
:1030D00022469EA1684600F09DF94FF496727CA1AD
:1030E0006846FFF7CEFE10B1012007B030BD0022C8
:1030F0004CA12846FFF7C5FE08B10220F5E740F2D3
:10310000DC5296A11A20FFF7BCFE08B10320ECE7C1
:103110000020EAE72DE9F04705464FF4967242A1F8
:1031200090A0FFF7AEFE00285ED191A1384800F0D4
:103130007BFA07460FB1012000E00020002862D092
:1031400039A1384600F070FA04460CB1012000E0C5
:103150000020002857D00020207088A1384600F0B9
:103160005DFA044685A1002000F058FA044630209C
:10317000287082A1002000F051FA0446234680A264
:1031800081A1681C00F046F97CA1002000F046FAFD
:103190000446284600F07EFA00EB050922467CA191
:1031A000484600F037F975A1002000F037FA0446D0
:1031B000284600F06FFA00EB0509224675A1484643
:1031C00000F028F92078312801D100261BE0642284
:1031D00073A176A0FFF755FE20B1642212A176A05C
:1031E000FFF74FFE01260EE077A20AA1284600F065
:1031F00011F94FF0010802E0FFF7A3FE8046B8F195
:10320000000FF9D102263046BDE8F0873A080020C9
:10321000D40C0020257300008400024004440040C8
:1032200025730D0A000000004F4B000041540000C0
:10323000524541445900000041542B4350494E3FF0
:1032400000000000302C310041542B435245473FD1
:103250000000000041542B4353510000620800203D
:103260003A20310041542B43474154543F00000061
:1032700041542B43495053485554000041542B436B
:103280005354540041542B43494943520000000019
:103290004552524F5200000041542B43494653526D
:1032A0000000000041542B43495053544152543DB7
:1032B00022544350222C222573222C2225732200D3
:1032C000541D0020434F4E4E454354204F4B0000A9
:1032D0003E00000041542B43495053454E440000EA
:1032E00053454E44204F4B0041542B434D47463DE0
:1032F0003100000041542B435343533D2255435367
:103300003222000041542B43534D503D31372C3174
:1033100036372C302C32350041542B435343533D28
:103320002247534D2200000041542B43534D503D42
:1033300031372C3136372C302C323431000000003C
:1033400041542B435343413F0000000041542B4361
:103350004D47533D22257322000000002B434D476B
:10336000533A000041542B43474E53494E46000008
:103370002B43474E53494E463A0000002C000000B4
:1033800030303031000000002C25732C25730000F4
:103390002C2573002C25732C3030303100000000B8
:1033A0002B43474E535057523A20310041542B4340
:1033B000474E535057523F0041542B43474E5350B2
:1033C00057523D3100000000302C302C302C302C76
:1033D00030000000704700001CB50C46064B7B44D3
:1033E00069460090204600F012FA04460020694623
:1033F00000F020FA20461CBD530400000FB404491D
:1034000010B503AA029800F031FA10BC5DF814FB65
:10341000480800200FB41CB5084B06AA7B44694637
:103420000090059800F0F3F904460020694600F08A
:1034300001FA20461CBC5DF814FB000015040000D6
:1034400070B50C460546012A05D02878800600D5BF
:10345000EA69002302E0012305E05B1C934202D2EB
:10346000E05C0028F9D1A869E618C01AA861286AAA
:1034700018442862284600F03CF904E0D5E901210F
:1034800014F8010B9047B442F8D3284600F047F9EE
:1034900070BD00002DE9F05F894604464FF0000A38
:1034A000DFF874B1FB44C0F820A02046E1688847EB
:1034B000002874D0252806D0D4E901219047206A3D
:1034C000401C2062F1E700265F462046E1688847FD
:1034D0002028054607DB312D05D2781910F8200C7D
:1034E00008B10643F1E7B00701D526F00406C4F899
:1034F0001CA00027C4F818A02A2D09D0284601F0E6
:1035000002FB38B304EB8708303DC8F8185019E0C7
:1035100059F8041B204604EB87029161E168884753
:10352000012F054618D1E069002820DA26F0200690
:103530001DE0D8F8180000EB800005EB40003038A3
:10354000C8F818002046E1688847054601F0DBFA14
:103550000028EED1012F0AD02E2D08D12046E16897
:1035600088477F1C0546022F46F02006C4DBA06971
:10357000002803DA404246F00106A061F00701D0BE
:1035800026F010066C2D0BD0682D09D04C2D39D0AB
:103590006A2D35D0742D35D07A2D33D016E038E031
:1035A000E1682F4620468847B842054609D16C2F6E
:1035B00026D04FF48060E1680643204688470546E0
:1035C00004E06C2F1AD04FF4807006430DB3A5F1C0
:1035D0004100192802D8203546F400664A4629469B
:1035E000204626604E46FCF701FE80B101280BD034
:1035F000F61D26F0070000F1080956E74020E4E731
:103600008020D8E70020D6E706F104094DE72846D8
:1036100052E7206ABDE8F09FC8160000014A00F09A
:1036200055BA00006808002030B505460B462A460A
:1036300013F8014B12F8010B08B1A042F8D01CB1ED
:10364000002802D06D1CF1E7284630BD40EA010396
:10365000024630B59B0710D14FF0013400E008C29C
:1036600008C91D1B9D4315EAC41FF8D013F0FF01C4
:1036700002F8011B0DD01B0AF8E711F8013B002BE3
:1036800002F8013B05D011F8013B002B02F8013B89
:10369000F3D130BD10B5431C02E010F8011B71B12D
:1036A0008107FAD14FF0013202C88C1A8C4314EA18
:1036B000C211F9D0C01A0A0603D0C01E10BDC01A2C
:1036C00010BD0A0401D0801E10BD0902FCD0401EAE
:1036D00010BD421E12F8013F002BFBD111F8013B37
:1036E000002B02F8013BF9D17047704770477047D3
:1036F000704770B5044685690068C10601D530265B
:1037000000E02026C00707D070BDD4E90121304673
:103710009047206A401C20626D1EF6D570BD70B5C2
:10372000044685690078C00707D170BDD4E901213E
:1037300020209047206A401C20626D1EF6D570BD87
:1037400009684A0501D540B27047C905FCD500B2E9
:10375000704709684A0501D5C0B27047C905FCD554
:1037600080B270472DE9F0410646002410687529A3
:10377000314616A510D0FFF7E3FF002802DA4042D9
:1037800013A507E031688A0701D512A502E04907B1
:1037900004D511A5012401E0FFF7DBFF00210A2277
:1037A00006F1240709E0B0FBF2FCB0FBF2F302FBE8
:1037B0001C00303078541846491C0028F3D12346A9
:1037C0002A463046BDE8F04100F0E7B900000000AD
:1037D0002D0000002B00000020000000116802688E
:1037E000006A530501D508700AE0D30501D50880A9
:1037F00006E0130603D5C217C1E9000200E0086025
:103800000120704701694A1C02610878704700B5C1
:103810008FB0CDE901310021059105497944CDE909
:10382000031011466846FFF735FE0FB000BD0000DB
:10383000E5FFFFFF0A6802F8010B0A60704710B548
:10384000436913B1AFF3008001E0FFF7F9FD0120F8
:1038500010BD127800F124010A7000224A70012282
:10386000EDE711684FF0FF32E9E70000074B70B554
:103870000D467B44FFF7CBFF0446284600F009FCC9
:1038800010B14FF0FF3070BD204670BDA9D6FFFFCC
:103890002DE9FF5F15468A460446DFF8AC80F84400
:1038A0000027D8E900103E46CDE9001010E03AF8B4
:1038B00016106A4602A800F0F0FB411C07D02178E0
:1038C000890603D5E269391891420DD80744761C60
:1038D0002078800602D5E069B84205DDAE42E6DB1D
:1038E0003AF816000028E2D1A069C01BA06120466A
:1038F000FFF7FFFED8E90010CDE90010002017E027
:103900003AF818106A4602A800F0C7FBB0F1FF3F72
:1039100081460BD000250DF1080B05E0D4E901210B
:103920001BF8050090476D1C4D45F7D308F10100C9
:10393000B0428046E4DB206A384420622046FFF72C
:10394000EEFEBDE8FF9F0000E21200002DE9F0410D
:103950008046D21D22F007020025D2E90002F52997
:1039600015A614D0011E72F1000106DA0023D0EB77
:10397000030063EB020211A608E0D8F800108B07E1
:1039800001D50FA602E0490701D50EA60125114673
:10399000002408F1240704E000F0BAF830323A5568
:1039A000641C50EA0102F7D12B46324621464046BC
:1039B000BDE8F04100F0F1B8000000002D0000006B
:1039C0002B0000002000000030B4002100F124048E
:1039D00008E002F00705D208303542EA4372DB08FE
:1039E0006554491C52EA0305F3D10468002310A270
:1039F000250708D504F020040C4304D0C469012332
:103A00000CA2641EC46130BC00F0C7B810B50446F7
:103A100021461068FFF79DFE02462046BDE8104093
:103A20000023D1E7D21D22F00701D1E90023CBE723
:103A30000000000030000000F0B40D4601880905C8
:103A400002D5214C7C4402E01F4C7C440E34002102
:103A500000F1240608E002F00F071209E75D42EAD0
:103A600003721B097754491C52EA0307F3D1027809
:103A70000023120704D5702D06D009B1022311349A
:103A80002246F0BC00F089B801231034F8E770B585
:103A900004460D4621461068FFF75BFE02462946A4
:103AA0002046BDE870400023C6E7D21D22F0070380
:103AB000D3E90023C0E70368126843F020030360E2
:103AC0000823C3610023B7E7441100002DE9F0414A
:103AD00015460E46040002D12C6804B90BA42046FA
:103AE00000F00BFB0444207870B12746314638467D
:103AF00000F0F3FA0444207810B1002004F8010B20
:103B000038462C60BDE8F0810027F9E7000000008E
:103B100030B5B0F10A024FEA900E71F100034EEA9F
:103B2000817EB0EB0E0061EB91014FEA101E4EEA70
:103B3000017E10EB0E0041EB11114FEA102E4EEA00
:103B4000016E10EB0E0041EB11214FEA104E4EEAD0
:103B5000014E10EB0E0041EB1141401841F1000104
:103B60004FEAD00040EA41704FEAD10110EB8005E6
:103B70004FEA810444EA907444EB01046D1944EB6C
:103B80000404521BA3414FF0000348BF0A3200D582
:103B900030BD401C41F1000130BD2DE9F0470D461C
:103BA00099469246044600F124080168880604D527
:103BB000E06921F01001216000E00120A84201DD50
:103BC000471B00E00027A1697A1902EB0900081AD7
:103BD000A0612078C00602D42046FFF78AFD0026A7
:103BE00008E0D4E901211AF806009047206A401C39
:103BF000761C20624E45F4DB2078C0060AD52046AC
:103C0000FFF777FD06E0D4E9012130209047206AD4
:103C1000401C2062381EA7F10107F4DC07E0D4E95C
:103C2000012118F805009047206A401C2062281ED8
:103C3000A5F10105F3DC2046FFF771FD20780006B1
:103C400002D50220BDE8F0870120FBE770472DE98F
:103C5000FF4F0C461E464FF0FF378BB0D2E90001F4
:103C6000DDF860800A908A46C1F30A5505B93D46E1
:103C7000002108464FF00000BAF1000F00F44000A8
:103C800005DA00EB80004FF4400101EA50004FEAF2
:103C90009059B9F1010F00DDB9460A9850EA4A007F
:103CA0000ED044F61050A5F2FF3545432F14B8F15D
:103CB000000F1ED07542291E1EDDC9F100021CE056
:103CC000B8F1010F4FF0000001D0302103E0F243C2
:103CD00005E02154401CB042FBDB304600220021AD
:103CE00021540B99C1F80880C1E900200FB0BDE84C
:103CF000F08FBD1B6D1CDEE74A4600DA694206A85C
:103D000000F07AFA06AB93E8070003AB83E80700FC
:103D100050460A9900F028FB8DE80700A0F50050F6
:103D20001F3800900398002D09DD42F21F014A461A
:103D3000084403A90390684600F087FD08E0A0F559
:103D400000504A461F3803A90390684600F091FDD1
:103D50008DE807000004000C03D04FF0FF3041084D
:103D600000E01046B8F1000F03D000220092154683
:103D70001EE0751E05D4FFF7CBFE303262556D1E76
:103D8000F9D5B3460122084302D000227F1C04E08B
:103D90002078302801D100227F1E002A099786D082
:103DA0001DE0112D07DAFFF7B3FE303262556D1CAE
:103DB00050EA0102F5D1084302D00098C8B10EE0E4
:103DC0000021681E05E0235C625C63542254401E9F
:103DD000491C8142F7DBAB46A81B401E099000201E
:103DE00004F80B000B98099AC0F80880C0E9002B72
:103DF0007CE711264FF0000859E72DE9F04F88467F
:103E00000446D21D22F0070191B0D1E90001CDE9AD
:103E10000A0100F064FE02460B98C00F01D02D206D
:103E200007E02068810701D52B2002E0202101EA6C
:103E3000C000032A099001D0072A05DB034641464A
:103E4000204600F099F90BE12078800601D5E06961
:103E500000E00620B8F1650F814606D0B8F1660F84
:103E600018D0B8F1670F70D131E00020B9F1110F0F
:103E7000009001DB112301E009F101030AAA01A965
:103E80000CA8FFF7E4FEDDE90C70002609F101053E
:103E9000834647E001204B4600904FF000470AAAB6
:103EA00001A90CA8FFF7D3FEDDE90DB00C995D4622
:103EB000002610B909F101000D18B9EB050003D473
:103EC000C0F1FF3609F10105A5EB09002BE0B9F1BE
:103ED000010F01DA4FF001090020B9F1110F009034
:103EE000484601DD112300E003460AAA01A90CA8F7
:103EF000FFF7ADFEDDE90C704D46002683462078C5
:103F000000070AD4AB4500DA5D4601A8012D04DDA7
:103F1000411911F8011C302907D04F4502DA17F179
:103F2000040F04DA012082460FE06D1EEEE7002F39
:103F300002DCED1B3E4403E0781CA84200DD7D1C42
:103F4000B81B00F1010A4FF000472078000703D4A6
:103F5000AA4501DB4FF0FF3A0021B7F1004F0DF108
:103F600043088DF8431024D002202B23002F01DAC0
:103F70007F422D230A21021EA0F1010000DC5FB167
:103F800097FBF1FC97FBF1F201FB1C7C17460CF14F
:103F9000300C08F801CDEEE7A8F10100037021888C
:103FA000090501D5452100E06521A0F1010800F8CF
:103FB000011C09980FA9A1EB0807FF1D00B1012002
:103FC000411901EBEA70A1693844081A401EA0614A
:103FD0002078C00602D42046FFF78BFB099828B151
:103FE000D4E901219047206A401C20622078C00655
:103FF00022D52046FFF77DFB1EE0002E04DBB345F3
:1040000002DD01A8805D00E03020D4E90121904765
:10401000206A401C2062761CAAF101005FEA000AB7
:104020000AD100F0A5F8C0680168405CD4E901211C
:104030009047206A401C2062281EA5F10105DCDCA7
:1040400007E0D4E9012118F8010B9047206A401CD1
:104050002062381EA7F10107F3DC2046FFF75FFB63
:10406000032011B043E610B5436913B1AFF30080EC
:1040700001E0FFF70DFC012010BD128800F12401C2
:1040800082840022C2840122EDE711684FF0FF32E2
:10409000E9E7007B00F08000704770B516460C46DB
:1040A000054600F05DF8036893F80101012806D089
:1040B000FF2C0FD8185D68B101202C7070BDD3F8AB
:1040C00007013246214603F2071303442846BDE8A0
:1040D000704018474FF0FF3070BD30B503461D7873
:1040E0001DB10A4603E0AC4201D1181A30BD12F8E6
:1040F000014B002CF7D15B1CF1E730B503461D786E
:104100003DB10A4612F8014B1CB1AC42FAD15B1C1E
:10411000F5E7181A30BD754600F0E2F8AE46050026
:104120006946534620F00700854618B020B5FCF7D5
:10413000B1FFBDE820404FF000064FF000074FF000
:1041400000084FF0000B21F00701AC46ACE8C009B5
:10415000ACE8C009ACE8C009ACE8C0098D467047BE
:1041600010B500F005F8001D10BD00BFD509000016
:1041700000487047A81D00202DE9F0411F46044665
:1041800003260168072A01F4006004DB08B116A5C4
:1041900005E016A503E008B115A500E015A521F07E
:1041A00010002060A069C01EA0610FB1401EA06178
:1041B0002046FFF79EFA4FB1D4E9012138469047D7
:1041C000206A401C2062C01C206206E0206AFAE7D8
:1041D000D4E9012115F8010B9047761EF8D220464C
:1041E000FFF79DFABDE8F0814E414E006E616E0012
:1041F000494E4600696E66002DE9F0478146164635
:104200008AB0334878440DC88DE80D0030487844B2
:10421000801C03AC0DC884E80D0041F69B300844B7
:10422000372190FBF1F290FBF1F5A5F1800501FB40
:1042300012041B3C02D56442012000E00020DFF89C
:1042400090A080460027FA44AAF1BE0A0DE0E007DC
:1042500009D03246684607EB47010AEB810100F0BE
:1042600008FB8DE8070064107F1C002CEFD1184F6D
:104270007F44AC3F18E0E80714D007EB04100DF1C1
:10428000180A90E80E008AE80E00C068F04201D1DA
:1042900098190890324606A903A800F0EAFA03AB81
:1042A00083E807006D10641C002DE4D13246694696
:1042B000B8F1000F03A802D000F0C7FA01E000F047
:1042C000D8FAC9E90001C9F808200AB0BDE8F087AA
:1042D000280A00000446AFF300802046FBF7E9FF00
:1042E00000487047881D00204FF0013C50F8042B17
:1042F00051F8043B9A4221D1A2EB0C03934313EAF9
:10430000CC1317D150F8042B51F8043B9A4215D125
:10431000A2EB0C03934313EACC130BD150F8042BFC
:1043200051F8043B9A4209D1A2EB0C03934313EAE0
:10433000CC13DBD04FF00000704700BFD01A01BA99
:10434000B1FA81F101F0180122FA01F0CB40C1F17C
:104350002001DBB2C0B2C01A2CFA01F3D11A91438A
:1043600011EAC311E6D170475FEA400C08BF91F033
:10437000000F4FEA8C234FEAC12243EA51514FEA22
:104380001C5018BF00F5F0404FEA300018BF41F054
:1043900000415FEA6C5C00F02980BCF1FF3F08BF80
:1043A00040F080407047130C06BF12044FF0100C11
:1043B0004FF0000C130E04BF12020CF1080C130F87
:1043C00004BF12010CF1040C930F04BF92000CF116
:1043D000020CD30F04BF52000CF1010C11464FF038
:1043E0000002A0F11F00A0EB0C00704711F0004F7D
:1043F00008BF704731F000413FF4D5AF0B0C06BF4A
:1044000009044FF0100C4FF0000C0B0E04BF090212
:104410000CF1080C0B0F04BF09010CF1040C8B0FFD
:1044200004BF89000CF1020CCB0F04BF49000CF152
:10443000010CCCF12003A0EB0C0022FA03F302FAEA
:104440000CF241EA030100F10100704720F07F4CBB
:1044500080EA030023F07F47ACEB070303F57C53AE
:1044600000F0004003F1FF032DE980494FEA154BAE
:1044700009B44FEA144325EA0B4E24EA03480FF22D
:10448000042606EB132749083E785FEA320203FB55
:104490000667C7F5000707FB06F64FEA54374FEAF1
:1044A000D64606F1020607FB066CCCF1005C4FEA2B
:1044B0001C472CEA074C07FB06F40CFB06F504EB43
:1044C00015464FEA961634BF00204FF000404FEAE1
:1044D000D13706FB07FC4FEA1C4C0CFB0BF7D21B39
:1044E00003FB0CF761EB07010CFB0EF7B0EB074089
:1044F00072EB17420CFB08F734BFA2EB0742B2EB9A
:10450000074261EB17414FEA0C444FEA910706FB63
:1045100007FC4FEA1C4C0CFB0BF7B0EBC74072EBEF
:10452000573203FB0CF734BFA2EBC742B2EBC742D2
:1045300061EB57310CFB0EF7B0EBC70072EB577213
:104540000CFB08F734BFA2EBC702B2EBC70261EB6A
:104550005771039F4FEA816141EA921104EBCC0449
:104560004FEAD1374FEA826206FB07FC42EA90121B
:104570004FEA80604FEA1C4C0CFB0BF7D21B03FB8D
:104580000CF761EB07010CFB0EF7B0EB074072EB89
:1045900017420CFB08F734BFA2EB0742B2EB07420D
:1045A00061EB17414FEA8C554FEA910704EB9C24CD
:1045B00006FB07FC4FEA1C4C0CFB0BF7B0EBC740AB
:1045C00072EB573203FB0CF734BFA2EBC742B2EBDE
:1045D000C74261EB57310CFB0EF7B0EBC70072EB33
:1045E00057720CFB08F734BFA2EBC702B2EBC7024D
:1045F00061EB577115EB4C254FEA816141EA92114D
:104600004FEA82624FEAD13742EA901206FB07FC7A
:1046100044F100044FEA80604FEA1C4C0CFB0BF79E
:10462000D21B03FB0CF761EB07010CFB0EF7B0EBA1
:10463000074072EB17420CFB08F734BFA2EB0742AE
:10464000B2EB074261EB174115EB1C154FEA8131C4
:1046500041EA92414FEA823242EA90424FEA803088
:104660004FEA0C7644F1000448EA03434EEA0B4853
:104670004FF0000EB2EB080C71EB030724BF62464B
:1046800039464EEB0E0E4FF0000B001852414941D7
:104690004BEB0B0BB2EB080C71EB03077BF1000B40
:1046A00024BF624639464EEB0E0E4FF0000B001849
:1046B000524149414BEB0B0BB2EB080C71EB03077A
:1046C0007BF1000B24BF624639464EEB0E0E51EAD9
:1046D000020718BF46F0010616EB0E7655F10002F0
:1046E00054F1000103D5BDE88901BDE80088BDE8AB
:1046F0008901BDE80048B619524141EB0101A3F11F
:104700000103704780807F7E7D7C7B7A7978777625
:1047100076757473727171706F6E6E6D6C6C6B6A9E
:104720006A6968686766666564646363626161603C
:10473000605F5F5E5E5D5D5C5C5B5B5A5A595958B9
:104740005857575656555555545453535252525123
:10475000515050504F4F4F4E4E4D4D4D4C4C4C4B79
:104760004B4B4A4A4A4949494848484747474746C0
:1047700046464545454444444443434343424242FC
:1047800042414141002B26D4770021D01CB54FEA8D
:10479000370703B44FF010004FF010014FF0000046
:1047A0000FBCBDE810400BF1010BBBF1010F08BFBE
:1047B0005FEA170722BF12F1010211F101014FF068
:1047C000004143F1000300F0004043EA000070475D
:1047D000F9D35708DAE746EA064613F1400F4FEAE5
:1047E00016461FDD13F1200FDFBF16430A460021D6
:1047F00020335B42C8D0C3F1200746EA064602FADE
:1048000007F74FEA164646EA0706C3F1200722FAE1
:1048100003F201FA07F721FA03F14FF0000342EA2D
:104820000702B1E746EA020646EA06464FEA16469E
:1048300046EA0106BCBF46EA0646360C4FF00003C6
:104840004FF000024FF000019EE72DE9C04893466B
:1048500030B491E8380007C831EA400C48BF34EA68
:10486000430C03D5FFF7F2FDFFF78CFFF0BCBDE86A
:1048700000882DE9C048934630B491E8380007C855
:1048800010F0804F08BF13F0804F03D100F005F8FF
:10489000FFF778FFF0BCBDE8008820F07F4780EA92
:1048A000030023F07F4C07EB0C03A3F57C5300F0CF
:1048B0000040A3F1FE0392F0000F00F0B38095F0EA
:1048C000000F00F077802DE901494FEA11404FEACF
:1048D000144621EA004800FB06FC24EA064708FBD0
:1048E00006F607FB08F800FB07F718EB06484CEB49
:1048F000164C4FEA124B18EB07484FEA15464CEBA3
:10490000174022EA0B4E0BFB06FC25EA06470EFB7E
:1049100006F607FB0EFE0BFB07F71EEB064E4CEBF5
:10492000164C4FF000061EEB074E4CEB174B18EBE6
:104930000B0840F1000018EB0E0B58EB000840F19B
:1049400000008F1A4FF000013CBFC943661B14BF23
:10495000B5EB040C00213CBFC943F61B4FEA1744DA
:104960004EEA8E0E27EA04454FEA1C4704FB076215
:104970002CEA074C05FB07F70CFB05F604FB0CFCC7
:1049800016EB074642EB174216EB0C4642EB1C4275
:104990001BEB060658EB0202414146EA9E0601D592
:1049A000BDE80189B619524141EB0101A3F10103B0
:1049B000BDE801894FEA14454FEA114724EA05464C
:1049C00021EA074C05FB07F406FB07F70CFB06F191
:1049D00005FB0CFC11EB074144EB17444FEA12476F
:1049E00011EB0C4144EB1C4422EA074C05FB07F297
:1049F00006FB07F70CFB06F605FB0CFC16EB07465F
:104A000042EB174216EB0C4642EB1C456A1854F178
:104A1000000148BF7047B619524141EB0101A3F1B3
:104A20000103704795F0000F37D04FEA11424FEA6B
:104A3000144721EA024624EA074C02FB07F106FB71
:104A400007F70CFB06F402FB0CFC14EB074441EBEC
:104A500017414FEA154714EB0C4441EB1C4125EA82
:104A6000074C02FB07F506FB07F70CFB06F602FBFB
:104A70000CFC16EB074645EB174516EB0C4645EBD1
:104A80001C42121951F1000148BF7047B61952413A
:104A900041EB0101A3F1010370474FEA14454FEACE
:104AA000114724EA054621EA074C05FB07F106FBFE
:104AB00007F70CFB06F24FF0000605FB0CFC12EBAF
:104AC000074241EB174112EB0C4251EB1C4148BF2E
:104AD0007047921841EB0101A3F1010370474900AF
:104AE00050EAC12018BF04204A0D18BF40F0010051
:104AF00040F2FF72B2EB515F08BF40F002000128A4
:104B000008BF0520704730380A2801D201207047BD
:104B10000020704710B500290AD00878002807D077
:104B200005487844FFF7E0FB002801D0002010BDC5
:104B30000248784410BD0000460100003E0100001C
:104B400010B500290AD00878002807D00548784415
:104B5000FFF7CAFB002801D0002010BD02487844AE
:104B600010BD0000360100002E010000FFF745B91E
:104B70000400000800000000000000020001000026
:104B8000100000000000000000000000303132334F
:104B90003435363738394142434445464030580071
:104BA00030313233343536373839616263646566A3
:104BB0004030780002400000000000A0000000002B
:104BC00005400000000000C8000000000C4000008C
:104BD0000000409C00000000194000000020BCBE06
:104BE0000000000034400000BFC91B8E000000041C
:104BF000B5400000504BCFD06607E2CF0100000067
:104C00006C4100003E8251AADFEEA7340100000093
:104C1000D9420000DCB5A0E23A301F97FFFFFFFF4A
:104C2000B4450000FD25A0C8E9A3C14FFFFFFFFF69
:104C3000FF3F00000000008000000000FF3F000078
:104C40000000008000000000944D000800000020DB
:104C50006C0800006C010008B84F00086C080020C8
:104C60007C1B0000D00100081C0000004300000075
:104C7000F8FFFFFF0C0000000E0000000F00000016
:104C80002E0000001001000043000000F8FFFFFFAD
:104C9000004040404040404040404141414141404F
:104CA0004040404040404040404040404040404004
:104CB0004005020202020202020202020202020293
:104CC0000220202020202020202020020202020298
:104CD00002029090909090901010101010101010F0
:104CE00010101010101010101010101002020202FC
:104CF0000202888888888888080808080808080840
:104D0000080808080808080808080808020202023B
:104D10004000000000000000000000000000000053
:104D20000000000000000000000000000000000083
:104D30000000000000000000000000000000000073
:104D40000000000000000000000000000000000063
:104D50000000000000000000000000000000000053
:104D60000000000000000000000000000000000043
:104D70000000000000000000000000000000000033
:104D80000000000000000000000000000000000023
:104D90000000000040120003050911FF118905C33E
:104DA00000E000F000F8000100083A4428FF11AAD2
:104DB000440001500B8301384482929274018311A4
:104DC00020087C44FF017D7D7D04410540047D0178
:104DD000FF6E920102613F033B01017E81419149D7
:104DE000F20101011BC230083F3F0303F31311011D
:104DF000100601F1116181402005816111F14733F5
:104E0000414107200401C12120A321C114311931DE
:104E100037040736D33303033F3F426006E0E00028
:104E2000007FA8127FBF40040618060A1008000081
:104E300040407F4040A410041F204001A3201F14C5
:104E40003300600E6004300C03460534C2100407C2
:104E5000070601700904040484444444840780055F
:104E60000484C4041501120A71112140073D07078B
:104E7000C9200F0000101814121100000F1010109C
:104E80000F0F131F1015600D081012120D000018DF
:104E900000000D120A51295130015E0152800101BA
:104EA0003B4514047F030CA915DE1C0538545458E7
:104EB0002503080A2004047800003C40407C2000C0
:104EC000092CFFAAAAAA280800FF6810062649494B
:104ED0004932101005020408100F0D6F00049D01E7
:104EE000040D9D0004156343F80801240500F8181B
:104EF00060E82404806018235720202923E0102133
:104F0000A310E01449B4313908043C886818630DD3
:104F100015FF037DEA039DFF0371144DFF031D067A
:104F2000043D2E040942E91C0640202020C04A040A
:104F3000110721EA3E40520452600E811871295136
:104F4000070D4769031C060C0A0A090C0004156BBF
:104F50002D00042004080F081510050809090E0784
:104F60001D180430050909090F0A512951070DFFC1
:104F700000040D21000410103138322E39322E3148
:104F800032332E3133003601380F003135323931AA
:104F9000343533343036A3BAE67C04A24A044307DE
:104FA0000C08190203040607080978071122612674
:084FB0008405020406088800D4
:0400000508000131BD
:00000001FF
